{"abi":[{"type":"function","name":"BEHAVIOR_ABORT_ON_ERROR","inputs":[],"outputs":[{"name":"","type":"uint8","internalType":"uint8"}],"stateMutability":"view"},{"type":"function","name":"BEHAVIOR_IGNORE_ERROR","inputs":[],"outputs":[{"name":"","type":"uint8","internalType":"uint8"}],"stateMutability":"view"},{"type":"function","name":"BEHAVIOR_REVERT_ON_ERROR","inputs":[],"outputs":[{"name":"","type":"uint8","internalType":"uint8"}],"stateMutability":"view"},{"type":"function","name":"KIND_CONFIG_UPDATE","inputs":[],"outputs":[{"name":"","type":"uint8","internalType":"uint8"}],"stateMutability":"view"},{"type":"function","name":"KIND_DIGEST","inputs":[],"outputs":[{"name":"","type":"uint8","internalType":"uint8"}],"stateMutability":"view"},{"type":"function","name":"KIND_MESSAGE","inputs":[],"outputs":[{"name":"","type":"uint8","internalType":"uint8"}],"stateMutability":"view"},{"type":"function","name":"KIND_TRANSACTIONS","inputs":[],"outputs":[{"name":"","type":"uint8","internalType":"uint8"}],"stateMutability":"view"},{"type":"error","name":"InvalidKind","inputs":[{"name":"kind","type":"uint8","internalType":"uint8"}]}],"bytecode":{"object":"0x60e7610033600b8282823980515f1a607314602757634e487b7160e01b5f525f60045260245ffd5b305f52607381538281f3fe7300000000000000000000000000000000000000003014608060405260043610607c575f3560e01c8063420b0c2511605d578063420b0c251460805780634a7d2aa014609d5780634e5f57151460a3578063b570180a1460aa575f5ffd5b80630739d59a146080578063075a3d2d14609d5780633d5c1f9b1460a3575b5f5ffd5b6087600281565b60405160ff909116815260200160405180910390f35b60875f81565b6087600181565b608760038156fea264697066735822122018b97a37563de76d6a275bcefb5aa4334bab029f4b6f972d8f9e4846fc73d7a564736f6c634300081c0033","linkReferences":{}},"methodIdentifiers":{"BEHAVIOR_ABORT_ON_ERROR()":"420b0c25","BEHAVIOR_IGNORE_ERROR()":"4a7d2aa0","BEHAVIOR_REVERT_ON_ERROR()":"4e5f5715","KIND_CONFIG_UPDATE()":"0739d59a","KIND_DIGEST()":"b570180a","KIND_MESSAGE()":"3d5c1f9b","KIND_TRANSACTIONS()":"075a3d2d"},"id":23}