{"abi":[{"type":"function","name":"BEHAVIOR_ABORT_ON_ERROR","inputs":[],"outputs":[{"name":"","type":"uint8","internalType":"uint8"}],"stateMutability":"view"},{"type":"function","name":"BEHAVIOR_IGNORE_ERROR","inputs":[],"outputs":[{"name":"","type":"uint8","internalType":"uint8"}],"stateMutability":"view"},{"type":"function","name":"BEHAVIOR_REVERT_ON_ERROR","inputs":[],"outputs":[{"name":"","type":"uint8","internalType":"uint8"}],"stateMutability":"view"},{"type":"function","name":"KIND_CONFIG_UPDATE","inputs":[],"outputs":[{"name":"","type":"uint8","internalType":"uint8"}],"stateMutability":"view"},{"type":"function","name":"KIND_DIGEST","inputs":[],"outputs":[{"name":"","type":"uint8","internalType":"uint8"}],"stateMutability":"view"},{"type":"function","name":"KIND_MESSAGE","inputs":[],"outputs":[{"name":"","type":"uint8","internalType":"uint8"}],"stateMutability":"view"},{"type":"function","name":"KIND_TRANSACTIONS","inputs":[],"outputs":[{"name":"","type":"uint8","internalType":"uint8"}],"stateMutability":"view"},{"type":"error","name":"InvalidKind","inputs":[{"name":"kind","type":"uint8","internalType":"uint8"}]}],"bytecode":{"object":"0x6101ee610052600b82828239805160001a6073146045577f4e487b7100000000000000000000000000000000000000000000000000000000600052600060045260246000fd5b30600052607381538281f3fe73000000000000000000000000000000000000000030146080604052600436106100875760003560e01c8063420b0c2511610065578063420b0c25146100e65780634a7d2aa0146101045780634e5f571514610122578063b570180a1461014057610087565b80630739d59a1461008c578063075a3d2d146100aa5780633d5c1f9b146100c8575b600080fd5b61009461015e565b6040516100a1919061019d565b60405180910390f35b6100b2610163565b6040516100bf919061019d565b60405180910390f35b6100d0610168565b6040516100dd919061019d565b60405180910390f35b6100ee61016d565b6040516100fb919061019d565b60405180910390f35b61010c610172565b604051610119919061019d565b60405180910390f35b61012a610177565b604051610137919061019d565b60405180910390f35b61014861017c565b604051610155919061019d565b60405180910390f35b600281565b600081565b600181565b600281565b600081565b600181565b600381565b600060ff82169050919050565b61019781610181565b82525050565b60006020820190506101b2600083018461018e565b9291505056fea2646970667358221220a54e1df6658c990037662b61a53a59b00946fb4dc476927c3552ce2eb8e2d02f64736f6c634300081c0033","linkReferences":{}},"methodIdentifiers":{"BEHAVIOR_ABORT_ON_ERROR()":"420b0c25","BEHAVIOR_IGNORE_ERROR()":"4a7d2aa0","BEHAVIOR_REVERT_ON_ERROR()":"4e5f5715","KIND_CONFIG_UPDATE()":"0739d59a","KIND_DIGEST()":"b570180a","KIND_MESSAGE()":"3d5c1f9b","KIND_TRANSACTIONS()":"075a3d2d"},"id":23}