{"abi":[{"type":"function","name":"addProjectUrl","inputs":[{"name":"projectId","type":"bytes32","internalType":"bytes32"},{"name":"projectUrl","type":"string","internalType":"string"}],"outputs":[],"stateMutability":"nonpayable"},{"type":"function","name":"addProjectUrlBatch","inputs":[{"name":"projectId","type":"bytes32","internalType":"bytes32"},{"name":"projectUrls","type":"string[]","internalType":"string[]"}],"outputs":[],"stateMutability":"nonpayable"},{"type":"function","name":"addProjectUrlHash","inputs":[{"name":"projectId","type":"bytes32","internalType":"bytes32"},{"name":"projectUrlHash","type":"bytes32","internalType":"bytes32"}],"outputs":[],"stateMutability":"nonpayable"},{"type":"function","name":"addProjectUrlHashBatch","inputs":[{"name":"projectId","type":"bytes32","internalType":"bytes32"},{"name":"projectUrlHashes","type":"bytes32[]","internalType":"bytes32[]"}],"outputs":[],"stateMutability":"nonpayable"},{"type":"function","name":"claimProject","inputs":[{"name":"projectIdUpper","type":"bytes12","internalType":"bytes12"}],"outputs":[{"name":"projectId","type":"bytes32","internalType":"bytes32"}],"stateMutability":"nonpayable"},{"type":"function","name":"isProjectUrl","inputs":[{"name":"","type":"bytes32","internalType":"bytes32"},{"name":"","type":"bytes32","internalType":"bytes32"}],"outputs":[{"name":"","type":"bool","internalType":"bool"}],"stateMutability":"view"},{"type":"function","name":"listProjectUrls","inputs":[{"name":"projectId","type":"bytes32","internalType":"bytes32"}],"outputs":[{"name":"","type":"bytes32[]","internalType":"bytes32[]"}],"stateMutability":"view"},{"type":"function","name":"projectOwner","inputs":[{"name":"","type":"bytes32","internalType":"bytes32"}],"outputs":[{"name":"","type":"address","internalType":"address"}],"stateMutability":"view"},{"type":"function","name":"projectUrlsList","inputs":[{"name":"","type":"bytes32","internalType":"bytes32"},{"name":"","type":"uint256","internalType":"uint256"}],"outputs":[{"name":"","type":"bytes32","internalType":"bytes32"}],"stateMutability":"view"},{"type":"function","name":"removeProjectUrl","inputs":[{"name":"projectId","type":"bytes32","internalType":"bytes32"},{"name":"projectUrl","type":"string","internalType":"string"}],"outputs":[],"stateMutability":"nonpayable"},{"type":"function","name":"removeProjectUrlHash","inputs":[{"name":"projectId","type":"bytes32","internalType":"bytes32"},{"name":"projectUrlHash","type":"bytes32","internalType":"bytes32"},{"name":"urlIdx","type":"uint256","internalType":"uint256"}],"outputs":[],"stateMutability":"nonpayable"},{"type":"function","name":"removeProjectUrlHashBatch","inputs":[{"name":"projectId","type":"bytes32","internalType":"bytes32"},{"name":"projectUrlHashes","type":"bytes32[]","internalType":"bytes32[]"},{"name":"urlIdxs","type":"uint256[]","internalType":"uint256[]"}],"outputs":[],"stateMutability":"nonpayable"},{"type":"function","name":"transferProject","inputs":[{"name":"projectId","type":"bytes32","internalType":"bytes32"},{"name":"newOwner","type":"address","internalType":"address"}],"outputs":[],"stateMutability":"nonpayable"},{"type":"function","name":"validateAttestation","inputs":[{"name":"wallet","type":"address","internalType":"address"},{"name":"attestation","type":"tuple","internalType":"struct Attestation","components":[{"name":"approvedSigner","type":"address","internalType":"address"},{"name":"identityType","type":"bytes4","internalType":"bytes4"},{"name":"issuerHash","type":"bytes32","internalType":"bytes32"},{"name":"audienceHash","type":"bytes32","internalType":"bytes32"},{"name":"applicationData","type":"bytes","internalType":"bytes"},{"name":"authData","type":"tuple","internalType":"struct AuthData","components":[{"name":"redirectUrl","type":"string","internalType":"string"},{"name":"issuedAt","type":"uint64","internalType":"uint64"}]}]},{"name":"projectId","type":"bytes32","internalType":"bytes32"}],"outputs":[{"name":"","type":"bytes32","internalType":"bytes32"}],"stateMutability":"view"},{"type":"event","name":"ProjectClaimed","inputs":[{"name":"projectId","type":"bytes32","indexed":true,"internalType":"bytes32"},{"name":"owner","type":"address","indexed":true,"internalType":"address"}],"anonymous":false},{"type":"event","name":"ProjectOwnerTransferred","inputs":[{"name":"projectId","type":"bytes32","indexed":true,"internalType":"bytes32"},{"name":"newOwner","type":"address","indexed":true,"internalType":"address"}],"anonymous":false},{"type":"event","name":"ProjectUrlAdded","inputs":[{"name":"projectId","type":"bytes32","indexed":true,"internalType":"bytes32"},{"name":"urlHash","type":"bytes32","indexed":true,"internalType":"bytes32"}],"anonymous":false},{"type":"event","name":"ProjectUrlRemoved","inputs":[{"name":"projectId","type":"bytes32","indexed":true,"internalType":"bytes32"},{"name":"urlHash","type":"bytes32","indexed":true,"internalType":"bytes32"}],"anonymous":false},{"type":"error","name":"InvalidProjectOwner","inputs":[]},{"type":"error","name":"InvalidProjectUrlIndex","inputs":[]},{"type":"error","name":"InvalidRedirectUrl","inputs":[]},{"type":"error","name":"NotProjectOwner","inputs":[]},{"type":"error","name":"ProjectAlreadyClaimed","inputs":[]},{"type":"error","name":"ProjectUrlAlreadyExists","inputs":[]},{"type":"error","name":"ProjectUrlNotFound","inputs":[]}],"bytecode":{"object":"0x6080604052348015600f57600080fd5b506123748061001f6000396000f3fe608060405234801561001057600080fd5b50600436106100ea5760003560e01c8063a25acb251161008c578063d9acbe6b11610066578063d9acbe6b14610243578063dac6c58714610273578063ebc27b821461028f578063f4364de6146102bf576100ea565b8063a25acb25146101c7578063d4c9c5c4146101f7578063d4df101814610213576100ea565b80633808a90b116100c85780633808a90b14610143578063520994f11461017357806356cd2b921461018f5780639630aff8146101ab576100ea565b8063065d6c69146100ef5780631b31f01b1461010b5780632f28c69d14610127575b600080fd5b61010960048036038101906101049190611436565b6102ef565b005b610125600480360381019061012091906114c8565b6103ca565b005b610141600480360381019061013c91906115d0565b610473565b005b61015d600480360381019061015891906116ae565b610522565b60405161016a919061172c565b60405180910390f35b61018d60048036038101906101889190611747565b610625565b005b6101a960048036038101906101a49190611868565b6106cc565b005b6101c560048036038101906101c091906118c4565b6107af565b005b6101e160048036038101906101dc9190611747565b610947565b6040516101ee919061191f565b60405180910390f35b610211600480360381019061020c91906119fd565b610976565b005b61022d60048036038101906102289190611ae0565b610b48565b60405161023a919061172c565b60405180910390f35b61025d60048036038101906102589190611b0d565b610d14565b60405161026a919061172c565b60405180910390f35b61028d600480360381019061028891906115d0565b610d45565b005b6102a960048036038101906102a49190611b4d565b610e98565b6040516102b69190611b89565b60405180910390f35b6102d960048036038101906102d49190611b4d565b610ecb565b6040516102e69190611c62565b60405180910390f35b813373ffffffffffffffffffffffffffffffffffffffff1660008083815260200190815260200160002060009054906101000a900473ffffffffffffffffffffffffffffffffffffffff1673ffffffffffffffffffffffffffffffffffffffff1614610387576040517f7c2411e900000000000000000000000000000000000000000000000000000000815260040160405180910390fd5b60005b82518110156103c4576103b7848483815181106103aa576103a9611c84565b5b6020026020010151610f36565b808060010191505061038a565b50505050565b823373ffffffffffffffffffffffffffffffffffffffff1660008083815260200190815260200160002060009054906101000a900473ffffffffffffffffffffffffffffffffffffffff1673ffffffffffffffffffffffffffffffffffffffff1614610462576040517f7c2411e900000000000000000000000000000000000000000000000000000000815260040160405180910390fd5b61046d848484611047565b50505050565b813373ffffffffffffffffffffffffffffffffffffffff1660008083815260200190815260200160002060009054906101000a900473ffffffffffffffffffffffffffffffffffffffff1673ffffffffffffffffffffffffffffffffffffffff161461050b576040517f7c2411e900000000000000000000000000000000000000000000000000000000815260040160405180910390fd5b61051d8361051884611200565b610f36565b505050565b60008061058f848060a001906105389190611cc2565b80600001906105479190611cea565b8080601f016020809104026020016040519081016040528093929190818152602001838380828437600081840152601f19601f82011690508083019250505050505050611200565b905060016000848152602001908152602001600020600082815260200190815260200160002060009054906101000a900460ff16156105ec576105e485856105d690611fd4565b61123090919063ffffffff16565b91505061061e565b6040517fd7abef4e00000000000000000000000000000000000000000000000000000000815260040160405180910390fd5b9392505050565b813373ffffffffffffffffffffffffffffffffffffffff1660008083815260200190815260200160002060009054906101000a900473ffffffffffffffffffffffffffffffffffffffff1673ffffffffffffffffffffffffffffffffffffffff16146106bd576040517f7c2411e900000000000000000000000000000000000000000000000000000000815260040160405180910390fd5b6106c78383610f36565b505050565b813373ffffffffffffffffffffffffffffffffffffffff1660008083815260200190815260200160002060009054906101000a900473ffffffffffffffffffffffffffffffffffffffff1673ffffffffffffffffffffffffffffffffffffffff1614610764576040517f7c2411e900000000000000000000000000000000000000000000000000000000815260040160405180910390fd5b60005b82518110156107a95761079c8461079785848151811061078a57610789611c84565b5b6020026020010151611200565b610f36565b8080600101915050610767565b50505050565b813373ffffffffffffffffffffffffffffffffffffffff1660008083815260200190815260200160002060009054906101000a900473ffffffffffffffffffffffffffffffffffffffff1673ffffffffffffffffffffffffffffffffffffffff1614610847576040517f7c2411e900000000000000000000000000000000000000000000000000000000815260040160405180910390fd5b600073ffffffffffffffffffffffffffffffffffffffff168273ffffffffffffffffffffffffffffffffffffffff16036108ad576040517fff7d580d00000000000000000000000000000000000000000000000000000000815260040160405180910390fd5b8160008085815260200190815260200160002060006101000a81548173ffffffffffffffffffffffffffffffffffffffff021916908373ffffffffffffffffffffffffffffffffffffffff1602179055508173ffffffffffffffffffffffffffffffffffffffff16837f7869f0fa3d7efaa83c69bf6de987567787178b8d7e41fea0cadfea68a2e27de560405160405180910390a3505050565b60016020528160005260406000206020528060005260406000206000915091509054906101000a900460ff1681565b823373ffffffffffffffffffffffffffffffffffffffff1660008083815260200190815260200160002060009054906101000a900473ffffffffffffffffffffffffffffffffffffffff1673ffffffffffffffffffffffffffffffffffffffff1614610a0e576040517f7c2411e900000000000000000000000000000000000000000000000000000000815260040160405180910390fd5b8151835114610a49576040517f526c768700000000000000000000000000000000000000000000000000000000815260040160405180910390fd5b60005b60018351610a5a9190612016565b811015610ae85782600182610a6f919061204a565b81518110610a8057610a7f611c84565b5b6020026020010151838281518110610a9b57610a9a611c84565b5b60200260200101511015610adb576040517f526c768700000000000000000000000000000000000000000000000000000000815260040160405180910390fd5b8080600101915050610a4c565b5060005b8351811015610b4157610b3485858381518110610b0c57610b0b611c84565b5b6020026020010151858481518110610b2757610b26611c84565b5b6020026020010151611047565b8080600101915050610aec565b5050505050565b600080339050600073ffffffffffffffffffffffffffffffffffffffff168173ffffffffffffffffffffffffffffffffffffffff1603610bb4576040517fff7d580d00000000000000000000000000000000000000000000000000000000815260040160405180910390fd5b8281604051602001610bc79291906120e7565b604051602081830303815290604052610bdf90612150565b9150600073ffffffffffffffffffffffffffffffffffffffff1660008084815260200190815260200160002060009054906101000a900473ffffffffffffffffffffffffffffffffffffffff1673ffffffffffffffffffffffffffffffffffffffff1614610c79576040517ffeabeb4b00000000000000000000000000000000000000000000000000000000815260040160405180910390fd5b8060008084815260200190815260200160002060006101000a81548173ffffffffffffffffffffffffffffffffffffffff021916908373ffffffffffffffffffffffffffffffffffffffff1602179055508073ffffffffffffffffffffffffffffffffffffffff16827f0f01cd0734cc8ed416ac6ca25cb4fe02dbab63f1236af3858deb14a56663623860405160405180910390a350919050565b60026020528160005260406000208181548110610d3057600080fd5b90600052602060002001600091509150505481565b813373ffffffffffffffffffffffffffffffffffffffff1660008083815260200190815260200160002060009054906101000a900473ffffffffffffffffffffffffffffffffffffffff1673ffffffffffffffffffffffffffffffffffffffff1614610ddd576040517f7c2411e900000000000000000000000000000000000000000000000000000000815260040160405180910390fd5b6000610de883611200565b905060005b6002600086815260200190815260200160002080549050811015610e605781600260008781526020019081526020016000208281548110610e3157610e30611c84565b5b906000526020600020015403610e5357610e4c858383611047565b5050610e93565b8080600101915050610ded565b506040517f4745a4ee00000000000000000000000000000000000000000000000000000000815260040160405180910390fd5b505050565b60006020528060005260406000206000915054906101000a900473ffffffffffffffffffffffffffffffffffffffff1681565b606060026000838152602001908152602001600020805480602002602001604051908101604052809291908181526020018280548015610f2a57602002820191906000526020600020905b815481526020019060010190808311610f16575b50505050509050919050565b60016000838152602001908152602001600020600082815260200190815260200160002060009054906101000a900460ff1615610f9f576040517f2d86c03a00000000000000000000000000000000000000000000000000000000815260040160405180910390fd5b6001806000848152602001908152602001600020600083815260200190815260200160002060006101000a81548160ff0219169083151502179055506002600083815260200190815260200160002081908060018154018082558091505060019003906000526020600020016000909190919091505580827fceac3080d7874c4bba80ceae14b6aa96e0df9d4f673d9e5a352d66444f50206760405160405180910390a35050565b60026000848152602001908152602001600020805490508110158061109b57508160026000858152602001908152602001600020828154811061108d5761108c611c84565b5b906000526020600020015414155b156110d2576040517f526c768700000000000000000000000000000000000000000000000000000000815260040160405180910390fd5b600060016000858152602001908152602001600020600084815260200190815260200160002060006101000a81548160ff02191690831515021790555060026000848152602001908152602001600020600160026000868152602001908152602001600020805490506111459190612016565b8154811061115657611155611c84565b5b906000526020600020015460026000858152602001908152602001600020828154811061118657611185611c84565b5b9060005260206000200181905550600260008481526020019081526020016000208054806111b7576111b66121b7565b5b6001900381819060005260206000200160009055905581837f13d94de535e503661de3c84adf637590f269f37c8d4ed5daabae98376a442a6a60405160405180910390a3505050565b6000816040516020016112139190612257565b604051602081830303815290604052805190602001209050919050565b6000604051602001611241906122ba565b60405160208183030381529060405280519060200120828460600151856040015160405160200161127594939291906122f0565b60405160208183030381529060405280519060200120905092915050565b6000604051905090565b600080fd5b600080fd5b6000819050919050565b6112ba816112a7565b81146112c557600080fd5b50565b6000813590506112d7816112b1565b92915050565b600080fd5b6000601f19601f8301169050919050565b7f4e487b7100000000000000000000000000000000000000000000000000000000600052604160045260246000fd5b61132b826112e2565b810181811067ffffffffffffffff8211171561134a576113496112f3565b5b80604052505050565b600061135d611293565b90506113698282611322565b919050565b600067ffffffffffffffff821115611389576113886112f3565b5b602082029050602081019050919050565b600080fd5b60006113b26113ad8461136e565b611353565b905080838252602082019050602084028301858111156113d5576113d461139a565b5b835b818110156113fe57806113ea88826112c8565b8452602084019350506020810190506113d7565b5050509392505050565b600082601f83011261141d5761141c6112dd565b5b813561142d84826020860161139f565b91505092915050565b6000806040838503121561144d5761144c61129d565b5b600061145b858286016112c8565b925050602083013567ffffffffffffffff81111561147c5761147b6112a2565b5b61148885828601611408565b9150509250929050565b6000819050919050565b6114a581611492565b81146114b057600080fd5b50565b6000813590506114c28161149c565b92915050565b6000806000606084860312156114e1576114e061129d565b5b60006114ef868287016112c8565b9350506020611500868287016112c8565b9250506040611511868287016114b3565b9150509250925092565b600080fd5b600067ffffffffffffffff82111561153b5761153a6112f3565b5b611544826112e2565b9050602081019050919050565b82818337600083830152505050565b600061157361156e84611520565b611353565b90508281526020810184848401111561158f5761158e61151b565b5b61159a848285611551565b509392505050565b600082601f8301126115b7576115b66112dd565b5b81356115c7848260208601611560565b91505092915050565b600080604083850312156115e7576115e661129d565b5b60006115f5858286016112c8565b925050602083013567ffffffffffffffff811115611616576116156112a2565b5b611622858286016115a2565b9150509250929050565b600073ffffffffffffffffffffffffffffffffffffffff82169050919050565b60006116578261162c565b9050919050565b6116678161164c565b811461167257600080fd5b50565b6000813590506116848161165e565b92915050565b600080fd5b600060c082840312156116a5576116a461168a565b5b81905092915050565b6000806000606084860312156116c7576116c661129d565b5b60006116d586828701611675565b935050602084013567ffffffffffffffff8111156116f6576116f56112a2565b5b6117028682870161168f565b9250506040611713868287016112c8565b9150509250925092565b611726816112a7565b82525050565b6000602082019050611741600083018461171d565b92915050565b6000806040838503121561175e5761175d61129d565b5b600061176c858286016112c8565b925050602061177d858286016112c8565b9150509250929050565b600067ffffffffffffffff8211156117a2576117a16112f3565b5b602082029050602081019050919050565b60006117c66117c184611787565b611353565b905080838252602082019050602084028301858111156117e9576117e861139a565b5b835b8181101561183057803567ffffffffffffffff81111561180e5761180d6112dd565b5b80860161181b89826115a2565b855260208501945050506020810190506117eb565b5050509392505050565b600082601f83011261184f5761184e6112dd565b5b813561185f8482602086016117b3565b91505092915050565b6000806040838503121561187f5761187e61129d565b5b600061188d858286016112c8565b925050602083013567ffffffffffffffff8111156118ae576118ad6112a2565b5b6118ba8582860161183a565b9150509250929050565b600080604083850312156118db576118da61129d565b5b60006118e9858286016112c8565b92505060206118fa85828601611675565b9150509250929050565b60008115159050919050565b61191981611904565b82525050565b60006020820190506119346000830184611910565b92915050565b600067ffffffffffffffff821115611955576119546112f3565b5b602082029050602081019050919050565b60006119796119748461193a565b611353565b9050808382526020820190506020840283018581111561199c5761199b61139a565b5b835b818110156119c557806119b188826114b3565b84526020840193505060208101905061199e565b5050509392505050565b600082601f8301126119e4576119e36112dd565b5b81356119f4848260208601611966565b91505092915050565b600080600060608486031215611a1657611a1561129d565b5b6000611a24868287016112c8565b935050602084013567ffffffffffffffff811115611a4557611a446112a2565b5b611a5186828701611408565b925050604084013567ffffffffffffffff811115611a7257611a716112a2565b5b611a7e868287016119cf565b9150509250925092565b60007fffffffffffffffffffffffff000000000000000000000000000000000000000082169050919050565b611abd81611a88565b8114611ac857600080fd5b50565b600081359050611ada81611ab4565b92915050565b600060208284031215611af657611af561129d565b5b6000611b0484828501611acb565b91505092915050565b60008060408385031215611b2457611b2361129d565b5b6000611b32858286016112c8565b9250506020611b43858286016114b3565b9150509250929050565b600060208284031215611b6357611b6261129d565b5b6000611b71848285016112c8565b91505092915050565b611b838161164c565b82525050565b6000602082019050611b9e6000830184611b7a565b92915050565b600081519050919050565b600082825260208201905092915050565b6000819050602082019050919050565b611bd9816112a7565b82525050565b6000611beb8383611bd0565b60208301905092915050565b6000602082019050919050565b6000611c0f82611ba4565b611c198185611baf565b9350611c2483611bc0565b8060005b83811015611c55578151611c3c8882611bdf565b9750611c4783611bf7565b925050600181019050611c28565b5085935050505092915050565b60006020820190508181036000830152611c7c8184611c04565b905092915050565b7f4e487b7100000000000000000000000000000000000000000000000000000000600052603260045260246000fd5b600080fd5b600080fd5b600080fd5b600082356001604003833603038112611cde57611cdd611cb3565b5b80830191505092915050565b60008083356001602003843603038112611d0757611d06611cb3565b5b80840192508235915067ffffffffffffffff821115611d2957611d28611cb8565b5b602083019250600182023603831315611d4557611d44611cbd565b5b509250929050565b600080fd5b600080fd5b60007fffffffff0000000000000000000000000000000000000000000000000000000082169050919050565b611d8c81611d57565b8114611d9757600080fd5b50565b600081359050611da981611d83565b92915050565b600067ffffffffffffffff821115611dca57611dc96112f3565b5b611dd3826112e2565b9050602081019050919050565b6000611df3611dee84611daf565b611353565b905082815260208101848484011115611e0f57611e0e61151b565b5b611e1a848285611551565b509392505050565b600082601f830112611e3757611e366112dd565b5b8135611e47848260208601611de0565b91505092915050565b600067ffffffffffffffff82169050919050565b611e6d81611e50565b8114611e7857600080fd5b50565b600081359050611e8a81611e64565b92915050565b600060408284031215611ea657611ea5611d4d565b5b611eb06040611353565b9050600082013567ffffffffffffffff811115611ed057611ecf611d52565b5b611edc848285016115a2565b6000830152506020611ef084828501611e7b565b60208301525092915050565b600060c08284031215611f1257611f11611d4d565b5b611f1c60c0611353565b90506000611f2c84828501611675565b6000830152506020611f4084828501611d9a565b6020830152506040611f54848285016112c8565b6040830152506060611f68848285016112c8565b606083015250608082013567ffffffffffffffff811115611f8c57611f8b611d52565b5b611f9884828501611e22565b60808301525060a082013567ffffffffffffffff811115611fbc57611fbb611d52565b5b611fc884828501611e90565b60a08301525092915050565b6000611fe03683611efc565b9050919050565b7f4e487b7100000000000000000000000000000000000000000000000000000000600052601160045260246000fd5b600061202182611492565b915061202c83611492565b925082820390508181111561204457612043611fe7565b5b92915050565b600061205582611492565b915061206083611492565b925082820190508082111561207857612077611fe7565b5b92915050565b6000819050919050565b61209961209482611a88565b61207e565b82525050565b60008160601b9050919050565b60006120b78261209f565b9050919050565b60006120c9826120ac565b9050919050565b6120e16120dc8261164c565b6120be565b82525050565b60006120f38285612088565b600c8201915061210382846120d0565b6014820191508190509392505050565b600081519050919050565b6000819050602082019050919050565b600061213a82516112a7565b80915050919050565b600082821b905092915050565b600061215b82612113565b826121658461211e565b90506121708161212e565b925060208210156121b0576121ab7fffffffffffffffffffffffffffffffffffffffffffffffffffffffffffffffff83602003600802612143565b831692505b5050919050565b7f4e487b7100000000000000000000000000000000000000000000000000000000600052603160045260246000fd5b600081519050919050565b600081905092915050565b60005b8381101561221a5780820151818401526020810190506121ff565b60008484015250505050565b6000612231826121e6565b61223b81856121f1565b935061224b8185602086016121fc565b80840191505092915050565b60006122638284612226565b915081905092915050565b7f616363657074496d706c69636974526571756573740000000000000000000000600082015250565b60006122a46015836121f1565b91506122af8261226e565b601582019050919050565b60006122c582612297565b9150819050919050565b6000819050919050565b6122ea6122e5826112a7565b6122cf565b82525050565b60006122fc82876122d9565b60208201915061230c82866120d0565b60148201915061231c82856122d9565b60208201915061232c82846122d9565b6020820191508190509594505050505056fea26469706673582212204704a54d531aafb8da32f577e1884f79b39d1cde28ba592d2a3bea76266c660464736f6c634300081c0033","linkReferences":{}},"methodIdentifiers":{"addProjectUrl(bytes32,string)":"2f28c69d","addProjectUrlBatch(bytes32,string[])":"56cd2b92","addProjectUrlHash(bytes32,bytes32)":"520994f1","addProjectUrlHashBatch(bytes32,bytes32[])":"065d6c69","claimProject(bytes12)":"d4df1018","isProjectUrl(bytes32,bytes32)":"a25acb25","listProjectUrls(bytes32)":"f4364de6","projectOwner(bytes32)":"ebc27b82","projectUrlsList(bytes32,uint256)":"d9acbe6b","removeProjectUrl(bytes32,string)":"dac6c587","removeProjectUrlHash(bytes32,bytes32,uint256)":"1b31f01b","removeProjectUrlHashBatch(bytes32,bytes32[],uint256[])":"d4c9c5c4","transferProject(bytes32,address)":"9630aff8","validateAttestation(address,(address,bytes4,bytes32,bytes32,bytes,(string,uint64)),bytes32)":"3808a90b"},"id":28}