{"abi":[{"type":"function","name":"addProjectUrl","inputs":[{"name":"projectId","type":"bytes32","internalType":"bytes32"},{"name":"projectUrl","type":"string","internalType":"string"}],"outputs":[],"stateMutability":"nonpayable"},{"type":"function","name":"addProjectUrlBatch","inputs":[{"name":"projectId","type":"bytes32","internalType":"bytes32"},{"name":"projectUrls","type":"string[]","internalType":"string[]"}],"outputs":[],"stateMutability":"nonpayable"},{"type":"function","name":"addProjectUrlHash","inputs":[{"name":"projectId","type":"bytes32","internalType":"bytes32"},{"name":"projectUrlHash","type":"bytes32","internalType":"bytes32"}],"outputs":[],"stateMutability":"nonpayable"},{"type":"function","name":"addProjectUrlHashBatch","inputs":[{"name":"projectId","type":"bytes32","internalType":"bytes32"},{"name":"projectUrlHashes","type":"bytes32[]","internalType":"bytes32[]"}],"outputs":[],"stateMutability":"nonpayable"},{"type":"function","name":"claimProject","inputs":[{"name":"projectIdUpper","type":"bytes12","internalType":"bytes12"}],"outputs":[{"name":"projectId","type":"bytes32","internalType":"bytes32"}],"stateMutability":"nonpayable"},{"type":"function","name":"isProjectUrl","inputs":[{"name":"","type":"bytes32","internalType":"bytes32"},{"name":"","type":"bytes32","internalType":"bytes32"}],"outputs":[{"name":"","type":"bool","internalType":"bool"}],"stateMutability":"view"},{"type":"function","name":"listProjectUrls","inputs":[{"name":"projectId","type":"bytes32","internalType":"bytes32"}],"outputs":[{"name":"","type":"bytes32[]","internalType":"bytes32[]"}],"stateMutability":"view"},{"type":"function","name":"projectOwner","inputs":[{"name":"","type":"bytes32","internalType":"bytes32"}],"outputs":[{"name":"","type":"address","internalType":"address"}],"stateMutability":"view"},{"type":"function","name":"projectUrlsList","inputs":[{"name":"","type":"bytes32","internalType":"bytes32"},{"name":"","type":"uint256","internalType":"uint256"}],"outputs":[{"name":"","type":"bytes32","internalType":"bytes32"}],"stateMutability":"view"},{"type":"function","name":"removeProjectUrl","inputs":[{"name":"projectId","type":"bytes32","internalType":"bytes32"},{"name":"projectUrl","type":"string","internalType":"string"}],"outputs":[],"stateMutability":"nonpayable"},{"type":"function","name":"removeProjectUrlHash","inputs":[{"name":"projectId","type":"bytes32","internalType":"bytes32"},{"name":"projectUrlHash","type":"bytes32","internalType":"bytes32"},{"name":"urlIdx","type":"uint256","internalType":"uint256"}],"outputs":[],"stateMutability":"nonpayable"},{"type":"function","name":"removeProjectUrlHashBatch","inputs":[{"name":"projectId","type":"bytes32","internalType":"bytes32"},{"name":"projectUrlHashes","type":"bytes32[]","internalType":"bytes32[]"},{"name":"urlIdxs","type":"uint256[]","internalType":"uint256[]"}],"outputs":[],"stateMutability":"nonpayable"},{"type":"function","name":"transferProject","inputs":[{"name":"projectId","type":"bytes32","internalType":"bytes32"},{"name":"newOwner","type":"address","internalType":"address"}],"outputs":[],"stateMutability":"nonpayable"},{"type":"function","name":"validateAttestation","inputs":[{"name":"wallet","type":"address","internalType":"address"},{"name":"attestation","type":"tuple","internalType":"struct Attestation","components":[{"name":"approvedSigner","type":"address","internalType":"address"},{"name":"identityType","type":"bytes4","internalType":"bytes4"},{"name":"issuerHash","type":"bytes32","internalType":"bytes32"},{"name":"audienceHash","type":"bytes32","internalType":"bytes32"},{"name":"applicationData","type":"bytes","internalType":"bytes"},{"name":"authData","type":"tuple","internalType":"struct AuthData","components":[{"name":"redirectUrl","type":"string","internalType":"string"},{"name":"issuedAt","type":"uint64","internalType":"uint64"}]}]},{"name":"projectId","type":"bytes32","internalType":"bytes32"}],"outputs":[{"name":"","type":"bytes32","internalType":"bytes32"}],"stateMutability":"view"},{"type":"event","name":"ProjectClaimed","inputs":[{"name":"projectId","type":"bytes32","indexed":true,"internalType":"bytes32"},{"name":"owner","type":"address","indexed":true,"internalType":"address"}],"anonymous":false},{"type":"event","name":"ProjectOwnerTransferred","inputs":[{"name":"projectId","type":"bytes32","indexed":true,"internalType":"bytes32"},{"name":"newOwner","type":"address","indexed":true,"internalType":"address"}],"anonymous":false},{"type":"event","name":"ProjectUrlAdded","inputs":[{"name":"projectId","type":"bytes32","indexed":true,"internalType":"bytes32"},{"name":"urlHash","type":"bytes32","indexed":true,"internalType":"bytes32"}],"anonymous":false},{"type":"event","name":"ProjectUrlRemoved","inputs":[{"name":"projectId","type":"bytes32","indexed":true,"internalType":"bytes32"},{"name":"urlHash","type":"bytes32","indexed":true,"internalType":"bytes32"}],"anonymous":false},{"type":"error","name":"InvalidProjectOwner","inputs":[]},{"type":"error","name":"InvalidProjectUrlIndex","inputs":[]},{"type":"error","name":"InvalidRedirectUrl","inputs":[]},{"type":"error","name":"NotProjectOwner","inputs":[]},{"type":"error","name":"ProjectAlreadyClaimed","inputs":[]},{"type":"error","name":"ProjectUrlAlreadyExists","inputs":[]},{"type":"error","name":"ProjectUrlNotFound","inputs":[]}],"bytecode":{"object":"0x6080604052348015600e575f5ffd5b5061174f8061001c5f395ff3fe608060405234801561000f575f5ffd5b50600436106100e5575f3560e01c8063a25acb2511610088578063d9acbe6b11610063578063d9acbe6b146101e6578063dac6c587146101f9578063ebc27b821461020c578063f4364de614610266575f5ffd5b8063a25acb2514610183578063d4c9c5c4146101c0578063d4df1018146101d3575f5ffd5b80633808a90b116100c35780633808a90b14610124578063520994f11461014a57806356cd2b921461015d5780639630aff814610170575f5ffd5b8063065d6c69146100e95780631b31f01b146100fe5780632f28c69d14610111575b5f5ffd5b6100fc6100f7366004610ff9565b610286565b005b6100fc61010c36600461103d565b610320565b6100fc61011f3660046110f6565b610389565b610137610132366004611158565b6103fe565b6040519081526020015b60405180910390f35b6100fc6101583660046111b0565b6104cb565b6100fc61016b3660046111d0565b610533565b6100fc61017e36600461128d565b6105ca565b6101b06101913660046111b0565b600160209081525f928352604080842090915290825290205460ff1681565b6040519015158152602001610141565b6100fc6101ce3660046112b7565b6106f3565b6101376101e136600461137d565b610879565b6101376101f43660046111b0565b610a00565b6100fc6102073660046110f6565b610a2b565b61024161021a3660046113bc565b5f6020819052908152604090205473ffffffffffffffffffffffffffffffffffffffff1681565b60405173ffffffffffffffffffffffffffffffffffffffff9091168152602001610141565b6102796102743660046113bc565b610b22565b60405161014191906113d3565b5f82815260208190526040902054829073ffffffffffffffffffffffffffffffffffffffff1633146102e4576040517f7c2411e900000000000000000000000000000000000000000000000000000000815260040160405180910390fd5b5f5b825181101561031a576103128484838151811061030557610305611415565b6020026020010151610b81565b6001016102e6565b50505050565b5f83815260208190526040902054839073ffffffffffffffffffffffffffffffffffffffff16331461037e576040517f7c2411e900000000000000000000000000000000000000000000000000000000815260040160405180910390fd5b61031a848484610c5d565b5f82815260208190526040902054829073ffffffffffffffffffffffffffffffffffffffff1633146103e7576040517f7c2411e900000000000000000000000000000000000000000000000000000000815260040160405180910390fd5b6103f9836103f484610ddc565b610b81565b505050565b5f8061045361041060a0860186611442565b61041a908061147e565b8080601f0160208091040260200160405190810160405280939291908181526020018383808284375f92019190915250610ddc92505050565b5f84815260016020908152604080832084845290915290205490915060ff16156104925761048a856104848661159a565b90610e0b565b9150506104c4565b6040517fd7abef4e00000000000000000000000000000000000000000000000000000000815260040160405180910390fd5b9392505050565b5f82815260208190526040902054829073ffffffffffffffffffffffffffffffffffffffff163314610529576040517f7c2411e900000000000000000000000000000000000000000000000000000000815260040160405180910390fd5b6103f98383610b81565b5f82815260208190526040902054829073ffffffffffffffffffffffffffffffffffffffff163314610591576040517f7c2411e900000000000000000000000000000000000000000000000000000000815260040160405180910390fd5b5f5b825181101561031a576105c2846103f48584815181106105b5576105b5611415565b6020026020010151610ddc565b600101610593565b5f82815260208190526040902054829073ffffffffffffffffffffffffffffffffffffffff163314610628576040517f7c2411e900000000000000000000000000000000000000000000000000000000815260040160405180910390fd5b73ffffffffffffffffffffffffffffffffffffffff8216610675576040517fff7d580d00000000000000000000000000000000000000000000000000000000815260040160405180910390fd5b5f8381526020819052604080822080547fffffffffffffffffffffffff00000000000000000000000000000000000000001673ffffffffffffffffffffffffffffffffffffffff86169081179091559051909185917f7869f0fa3d7efaa83c69bf6de987567787178b8d7e41fea0cadfea68a2e27de59190a3505050565b5f83815260208190526040902054839073ffffffffffffffffffffffffffffffffffffffff163314610751576040517f7c2411e900000000000000000000000000000000000000000000000000000000815260040160405180910390fd5b815183511461078c576040517f526c768700000000000000000000000000000000000000000000000000000000815260040160405180910390fd5b5f5b6001835161079c919061166b565b81101561082157826107af82600161167e565b815181106107bf576107bf611415565b60200260200101518382815181106107d9576107d9611415565b60200260200101511015610819576040517f526c768700000000000000000000000000000000000000000000000000000000815260040160405180910390fd5b60010161078e565b505f5b83518110156108725761086a8585838151811061084357610843611415565b602002602001015185848151811061085d5761085d611415565b6020026020010151610c5d565b600101610824565b5050505050565b5f33806108b2576040517fff7d580d00000000000000000000000000000000000000000000000000000000815260040160405180910390fd5b604080517fffffffffffffffffffffffff0000000000000000000000000000000000000000851660208201527fffffffffffffffffffffffffffffffffffffffff000000000000000000000000606084901b16602c8201520160405160208183030381529060405261092390611691565b5f8181526020819052604090205490925073ffffffffffffffffffffffffffffffffffffffff1615610981576040517ffeabeb4b00000000000000000000000000000000000000000000000000000000815260040160405180910390fd5b5f8281526020819052604080822080547fffffffffffffffffffffffff00000000000000000000000000000000000000001673ffffffffffffffffffffffffffffffffffffffff85169081179091559051909184917f0f01cd0734cc8ed416ac6ca25cb4fe02dbab63f1236af3858deb14a5666362389190a350919050565b6002602052815f5260405f208181548110610a19575f80fd5b905f5260205f20015f91509150505481565b5f82815260208190526040902054829073ffffffffffffffffffffffffffffffffffffffff163314610a89576040517f7c2411e900000000000000000000000000000000000000000000000000000000815260040160405180910390fd5b5f610a9383610ddc565b90505f5b5f85815260026020526040902054811015610aef575f858152600260205260409020805483919083908110610ace57610ace611415565b905f5260205f20015403610ae757610872858383610c5d565b600101610a97565b506040517f4745a4ee00000000000000000000000000000000000000000000000000000000815260040160405180910390fd5b5f81815260026020908152604091829020805483518184028101840190945280845260609392830182828015610b7557602002820191905f5260205f20905b815481526020019060010190808311610b61575b50505050509050919050565b5f82815260016020908152604080832084845290915290205460ff1615610bd4576040517f2d86c03a00000000000000000000000000000000000000000000000000000000815260040160405180910390fd5b5f828152600160208181526040808420858552825280842080547fffffffffffffffffffffffffffffffffffffffffffffffffffffffffffffff0016841790558584526002825280842080549384018155845290832090910183905551829184917fceac3080d7874c4bba80ceae14b6aa96e0df9d4f673d9e5a352d66444f5020679190a35050565b5f8381526002602052604090205481101580610ca257505f838152600260205260409020805483919083908110610c9657610c96611415565b905f5260205f20015414155b15610cd9576040517f526c768700000000000000000000000000000000000000000000000000000000815260040160405180910390fd5b5f838152600160208181526040808420868552825280842080547fffffffffffffffffffffffffffffffffffffffffffffffffffffffffffffff00169055868452600290915290912080549091610d2f9161166b565b81548110610d3f57610d3f611415565b905f5260205f20015460025f8581526020019081526020015f208281548110610d6a57610d6a611415565b905f5260205f20018190555060025f8481526020019081526020015f20805480610d9657610d966116d6565b600190038181905f5260205f20015f9055905581837f13d94de535e503661de3c84adf637590f269f37c8d4ed5daabae98376a442a6a60405160405180910390a3505050565b5f81604051602001610dee9190611703565b604051602081830303815290604052805190602001209050919050565b6040517f616363657074496d706c6963697452657175657374000000000000000000000060208201525f90603501604051602081830303815290604052805190602001208284606001518560400151604051602001610ea8949392919093845260609290921b7fffffffffffffffffffffffffffffffffffffffff0000000000000000000000001660208401526034830152605482015260740190565b6040516020818303038152906040528051906020012090505b92915050565b7f4e487b71000000000000000000000000000000000000000000000000000000005f52604160045260245ffd5b60405160c0810167ffffffffffffffff81118282101715610f1757610f17610ec7565b60405290565b604051601f82017fffffffffffffffffffffffffffffffffffffffffffffffffffffffffffffffe016810167ffffffffffffffff81118282101715610f6457610f64610ec7565b604052919050565b5f67ffffffffffffffff821115610f8557610f85610ec7565b5060051b60200190565b5f82601f830112610f9e575f5ffd5b8135610fb1610fac82610f6c565b610f1d565b8082825260208201915060208360051b860101925085831115610fd2575f5ffd5b602085015b83811015610fef578035835260209283019201610fd7565b5095945050505050565b5f5f6040838503121561100a575f5ffd5b82359150602083013567ffffffffffffffff811115611027575f5ffd5b61103385828601610f8f565b9150509250929050565b5f5f5f6060848603121561104f575f5ffd5b505081359360208301359350604090920135919050565b5f82601f830112611075575f5ffd5b8135602083015f5f67ffffffffffffffff84111561109557611095610ec7565b50601f83017fffffffffffffffffffffffffffffffffffffffffffffffffffffffffffffffe0166020016110c881610f1d565b9150508281528583830111156110dc575f5ffd5b828260208301375f92810160200192909252509392505050565b5f5f60408385031215611107575f5ffd5b82359150602083013567ffffffffffffffff811115611124575f5ffd5b61103385828601611066565b803573ffffffffffffffffffffffffffffffffffffffff81168114611153575f5ffd5b919050565b5f5f5f6060848603121561116a575f5ffd5b61117384611130565b9250602084013567ffffffffffffffff81111561118e575f5ffd5b840160c0818703121561119f575f5ffd5b929592945050506040919091013590565b5f5f604083850312156111c1575f5ffd5b50508035926020909101359150565b5f5f604083850312156111e1575f5ffd5b82359150602083013567ffffffffffffffff8111156111fe575f5ffd5b8301601f8101851361120e575f5ffd5b803561121c610fac82610f6c565b8082825260208201915060208360051b85010192508783111561123d575f5ffd5b602084015b8381101561127e57803567ffffffffffffffff811115611260575f5ffd5b61126f8a602083890101611066565b84525060209283019201611242565b50809450505050509250929050565b5f5f6040838503121561129e575f5ffd5b823591506112ae60208401611130565b90509250929050565b5f5f5f606084860312156112c9575f5ffd5b83359250602084013567ffffffffffffffff8111156112e6575f5ffd5b6112f286828701610f8f565b925050604084013567ffffffffffffffff81111561130e575f5ffd5b8401601f8101861361131e575f5ffd5b803561132c610fac82610f6c565b8082825260208201915060208360051b85010192508883111561134d575f5ffd5b6020840193505b8284101561136f578335825260209384019390910190611354565b809450505050509250925092565b5f6020828403121561138d575f5ffd5b81357fffffffffffffffffffffffff0000000000000000000000000000000000000000811681146104c4575f5ffd5b5f602082840312156113cc575f5ffd5b5035919050565b602080825282518282018190525f918401906040840190835b8181101561140a5783518352602093840193909201916001016113ec565b509095945050505050565b7f4e487b71000000000000000000000000000000000000000000000000000000005f52603260045260245ffd5b5f82357fffffffffffffffffffffffffffffffffffffffffffffffffffffffffffffffc1833603018112611474575f5ffd5b9190910192915050565b5f5f83357fffffffffffffffffffffffffffffffffffffffffffffffffffffffffffffffe18436030181126114b1575f5ffd5b83018035915067ffffffffffffffff8211156114cb575f5ffd5b6020019150368190038213156114df575f5ffd5b9250929050565b80357fffffffff0000000000000000000000000000000000000000000000000000000081168114611153575f5ffd5b5f60408284031215611525575f5ffd5b6040805190810167ffffffffffffffff8111828210171561154857611548610ec7565b604052905080823567ffffffffffffffff811115611564575f5ffd5b61157085828601611066565b825250602083013567ffffffffffffffff8116811461158d575f5ffd5b6020919091015292915050565b5f60c082360312156115aa575f5ffd5b6115b2610ef4565b6115bb83611130565b81526115c9602084016114e6565b60208201526040838101359082015260608084013590820152608083013567ffffffffffffffff8111156115fb575f5ffd5b61160736828601611066565b60808301525060a083013567ffffffffffffffff811115611626575f5ffd5b61163236828601611515565b60a08301525092915050565b7f4e487b71000000000000000000000000000000000000000000000000000000005f52601160045260245ffd5b81810381811115610ec157610ec161163e565b80820180821115610ec157610ec161163e565b805160208083015191908110156116d0577fffffffffffffffffffffffffffffffffffffffffffffffffffffffffffffffff8160200360031b1b821691505b50919050565b7f4e487b71000000000000000000000000000000000000000000000000000000005f52603160045260245ffd5b5f82518060208501845e5f92019182525091905056fea2646970667358221220eff7a239b8ebc55f56295f057cc1827136d7f792f7aac5663d6082776f11363064736f6c634300081c0033","linkReferences":{}},"methodIdentifiers":{"addProjectUrl(bytes32,string)":"2f28c69d","addProjectUrlBatch(bytes32,string[])":"56cd2b92","addProjectUrlHash(bytes32,bytes32)":"520994f1","addProjectUrlHashBatch(bytes32,bytes32[])":"065d6c69","claimProject(bytes12)":"d4df1018","isProjectUrl(bytes32,bytes32)":"a25acb25","listProjectUrls(bytes32)":"f4364de6","projectOwner(bytes32)":"ebc27b82","projectUrlsList(bytes32,uint256)":"d9acbe6b","removeProjectUrl(bytes32,string)":"dac6c587","removeProjectUrlHash(bytes32,bytes32,uint256)":"1b31f01b","removeProjectUrlHashBatch(bytes32,bytes32[],uint256[])":"d4c9c5c4","transferProject(bytes32,address)":"9630aff8","validateAttestation(address,(address,bytes4,bytes32,bytes32,bytes,(string,uint64)),bytes32)":"3808a90b"},"id":28}