{"abi":[{"type":"constructor","inputs":[{"name":"registry","type":"address","internalType":"address"},{"name":"projectId","type":"bytes32","internalType":"bytes32"}],"stateMutability":"nonpayable"},{"type":"function","name":"acceptImplicitRequest","inputs":[{"name":"wallet","type":"address","internalType":"address"},{"name":"attestation","type":"tuple","internalType":"struct Attestation","components":[{"name":"approvedSigner","type":"address","internalType":"address"},{"name":"identityType","type":"bytes4","internalType":"bytes4"},{"name":"issuerHash","type":"bytes32","internalType":"bytes32"},{"name":"audienceHash","type":"bytes32","internalType":"bytes32"},{"name":"applicationData","type":"bytes","internalType":"bytes"},{"name":"authData","type":"tuple","internalType":"struct AuthData","components":[{"name":"redirectUrl","type":"string","internalType":"string"},{"name":"issuedAt","type":"uint64","internalType":"uint64"}]}]},{"name":"call","type":"tuple","internalType":"struct Payload.Call","components":[{"name":"to","type":"address","internalType":"address"},{"name":"value","type":"uint256","internalType":"uint256"},{"name":"data","type":"bytes","internalType":"bytes"},{"name":"gasLimit","type":"uint256","internalType":"uint256"},{"name":"delegateCall","type":"bool","internalType":"bool"},{"name":"onlyFallback","type":"bool","internalType":"bool"},{"name":"behaviorOnError","type":"uint256","internalType":"uint256"}]}],"outputs":[{"name":"","type":"bytes32","internalType":"bytes32"}],"stateMutability":"view"},{"type":"function","name":"supportsInterface","inputs":[{"name":"interfaceId","type":"bytes4","internalType":"bytes4"}],"outputs":[{"name":"","type":"bool","internalType":"bool"}],"stateMutability":"view"}],"bytecode":{"object":"0x608060405234801561001057600080fd5b50604051610a4e380380610a4e8339818101604052810190610032919061012d565b610042828261004960201b60201c565b505061016d565b816000806101000a81548173ffffffffffffffffffffffffffffffffffffffff021916908373ffffffffffffffffffffffffffffffffffffffff160217905550806001819055505050565b600080fd5b600073ffffffffffffffffffffffffffffffffffffffff82169050919050565b60006100c482610099565b9050919050565b6100d4816100b9565b81146100df57600080fd5b50565b6000815190506100f1816100cb565b92915050565b6000819050919050565b61010a816100f7565b811461011557600080fd5b50565b60008151905061012781610101565b92915050565b6000806040838503121561014457610143610094565b5b6000610152858286016100e2565b925050602061016385828601610118565b9150509250929050565b6108d28061017c6000396000f3fe608060405234801561001057600080fd5b50600436106100365760003560e01c806301ffc9a71461003b5780639d043a661461006b575b600080fd5b6100556004803603810190610050919061029c565b61009b565b60405161006291906102e4565b60405180910390f35b610085600480360381019061008091906103a0565b610115565b6040516100929190610444565b60405180910390f35b60007f9d043a66000000000000000000000000000000000000000000000000000000007bffffffffffffffffffffffffffffffffffffffffffffffffffffffff1916827bffffffffffffffffffffffffffffffffffffffffffffffffffffffff1916148061010e575061010d826101cb565b5b9050919050565b6000610122848484610235565b60008054906101000a900473ffffffffffffffffffffffffffffffffffffffff1673ffffffffffffffffffffffffffffffffffffffff16633808a90b85856001546040518463ffffffff1660e01b81526004016101819392919061081c565b602060405180830381865afa15801561019e573d6000803e3d6000fd5b505050506040513d601f19601f820116820180604052508101906101c2919061086f565b90509392505050565b60007f01ffc9a7000000000000000000000000000000000000000000000000000000007bffffffffffffffffffffffffffffffffffffffffffffffffffffffff1916827bffffffffffffffffffffffffffffffffffffffffffffffffffffffff1916149050919050565b505050565b600080fd5b600080fd5b60007fffffffff0000000000000000000000000000000000000000000000000000000082169050919050565b61027981610244565b811461028457600080fd5b50565b60008135905061029681610270565b92915050565b6000602082840312156102b2576102b161023a565b5b60006102c084828501610287565b91505092915050565b60008115159050919050565b6102de816102c9565b82525050565b60006020820190506102f960008301846102d5565b92915050565b600073ffffffffffffffffffffffffffffffffffffffff82169050919050565b600061032a826102ff565b9050919050565b61033a8161031f565b811461034557600080fd5b50565b60008135905061035781610331565b92915050565b600080fd5b600060c082840312156103785761037761035d565b5b81905092915050565b600060e082840312156103975761039661035d565b5b81905092915050565b6000806000606084860312156103b9576103b861023a565b5b60006103c786828701610348565b935050602084013567ffffffffffffffff8111156103e8576103e761023f565b5b6103f486828701610362565b925050604084013567ffffffffffffffff8111156104155761041461023f565b5b61042186828701610381565b9150509250925092565b6000819050919050565b61043e8161042b565b82525050565b60006020820190506104596000830184610435565b92915050565b6104688161031f565b82525050565b600061047d6020840184610348565b905092915050565b61048e8161031f565b82525050565b60006104a36020840184610287565b905092915050565b6104b481610244565b82525050565b6104c38161042b565b81146104ce57600080fd5b50565b6000813590506104e0816104ba565b92915050565b60006104f560208401846104d1565b905092915050565b6105068161042b565b82525050565b600080fd5b600080fd5b600080fd5b6000808335600160200384360303811261053857610537610516565b5b83810192508235915060208301925067ffffffffffffffff8211156105605761055f61050c565b5b60018202360383131561057657610575610511565b5b509250929050565b600082825260208201905092915050565b82818337600083830152505050565b6000601f19601f8301169050919050565b60006105bb838561057e565b93506105c883858461058f565b6105d18361059e565b840190509392505050565b6000823560016040038336030381126105f8576105f7610516565b5b82810191505092915050565b6000808335600160200384360303811261062157610620610516565b5b83810192508235915060208301925067ffffffffffffffff8211156106495761064861050c565b5b60018202360383131561065f5761065e610511565b5b509250929050565b600082825260208201905092915050565b60006106848385610667565b935061069183858461058f565b61069a8361059e565b840190509392505050565b600067ffffffffffffffff82169050919050565b6106c2816106a5565b81146106cd57600080fd5b50565b6000813590506106df816106b9565b92915050565b60006106f460208401846106d0565b905092915050565b610705816106a5565b82525050565b60006040830161071e6000840184610604565b8583036000870152610731838284610678565b9250505061074260208401846106e5565b61074f60208601826106fc565b508091505092915050565b600060c0830161076d600084018461046e565b61077a6000860182610485565b506107886020840184610494565b61079560208601826104ab565b506107a360408401846104e6565b6107b060408601826104fd565b506107be60608401846104e6565b6107cb60608601826104fd565b506107d9608084018461051b565b85830360808701526107ec8382846105af565b925050506107fd60a08401846105dc565b84820360a086015261080f828261070b565b9150508091505092915050565b6000606082019050610831600083018661045f565b8181036020830152610843818561075a565b90506108526040830184610435565b949350505050565b600081519050610869816104ba565b92915050565b6000602082840312156108855761088461023a565b5b60006108938482850161085a565b9150509291505056fea26469706673582212200f7838d4e08a733173c1114f7d1249b401d87f3d48bda9d4937ec1a8b486922264736f6c634300081c0033","linkReferences":{}},"methodIdentifiers":{"acceptImplicitRequest(address,(address,bytes4,bytes32,bytes32,bytes,(string,uint64)),(address,uint256,bytes,uint256,bool,bool,uint256))":"9d043a66","supportsInterface(bytes4)":"01ffc9a7"},"id":32}