{"abi":[{"type":"constructor","inputs":[{"name":"registry","type":"address","internalType":"address"},{"name":"projectId","type":"bytes32","internalType":"bytes32"}],"stateMutability":"nonpayable"},{"type":"function","name":"acceptImplicitRequest","inputs":[{"name":"wallet","type":"address","internalType":"address"},{"name":"attestation","type":"tuple","internalType":"struct Attestation","components":[{"name":"approvedSigner","type":"address","internalType":"address"},{"name":"identityType","type":"bytes4","internalType":"bytes4"},{"name":"issuerHash","type":"bytes32","internalType":"bytes32"},{"name":"audienceHash","type":"bytes32","internalType":"bytes32"},{"name":"applicationData","type":"bytes","internalType":"bytes"},{"name":"authData","type":"tuple","internalType":"struct AuthData","components":[{"name":"redirectUrl","type":"string","internalType":"string"},{"name":"issuedAt","type":"uint64","internalType":"uint64"}]}]},{"name":"call","type":"tuple","internalType":"struct Payload.Call","components":[{"name":"to","type":"address","internalType":"address"},{"name":"value","type":"uint256","internalType":"uint256"},{"name":"data","type":"bytes","internalType":"bytes"},{"name":"gasLimit","type":"uint256","internalType":"uint256"},{"name":"delegateCall","type":"bool","internalType":"bool"},{"name":"onlyFallback","type":"bool","internalType":"bool"},{"name":"behaviorOnError","type":"uint256","internalType":"uint256"}]}],"outputs":[{"name":"","type":"bytes32","internalType":"bytes32"}],"stateMutability":"view"},{"type":"function","name":"supportsInterface","inputs":[{"name":"interfaceId","type":"bytes4","internalType":"bytes4"}],"outputs":[{"name":"","type":"bool","internalType":"bool"}],"stateMutability":"view"}],"bytecode":{"object":"0x6080604052348015600e575f5ffd5b506040516105bc3803806105bc833981016040819052602b916050565b5f80546001600160a01b0319166001600160a01b038416179055600181905550506085565b5f5f604083850312156060575f5ffd5b82516001600160a01b03811681146075575f5ffd5b6020939093015192949293505050565b61052a806100925f395ff3fe608060405234801561000f575f5ffd5b5060043610610034575f3560e01c806301ffc9a7146100385780639d043a6614610060575b5f5ffd5b61004b6100463660046101ef565b610081565b60405190151581526020015b60405180910390f35b61007361006e366004610232565b610119565b604051908152602001610057565b5f7fffffffff0000000000000000000000000000000000000000000000000000000082167f9d043a6600000000000000000000000000000000000000000000000000000000148061011357507f01ffc9a7000000000000000000000000000000000000000000000000000000007fffffffff000000000000000000000000000000000000000000000000000000008316145b92915050565b5f5f546001546040517f3808a90b00000000000000000000000000000000000000000000000000000000815273ffffffffffffffffffffffffffffffffffffffff90921691633808a90b9161017491889188916004016103aa565b602060405180830381865afa15801561018f573d5f5f3e3d5ffd5b505050506040513d601f19601f820116820180604052508101906101b391906104dd565b949350505050565b80357fffffffff00000000000000000000000000000000000000000000000000000000811681146101ea575f5ffd5b919050565b5f602082840312156101ff575f5ffd5b610208826101bb565b9392505050565b803573ffffffffffffffffffffffffffffffffffffffff811681146101ea575f5ffd5b5f5f5f60608486031215610244575f5ffd5b61024d8461020f565b9250602084013567ffffffffffffffff811115610268575f5ffd5b840160c08187031215610279575f5ffd5b9150604084013567ffffffffffffffff811115610294575f5ffd5b840160e081870312156102a5575f5ffd5b809150509250925092565b5f5f83357fffffffffffffffffffffffffffffffffffffffffffffffffffffffffffffffe18436030181126102e3575f5ffd5b830160208101925035905067ffffffffffffffff811115610302575f5ffd5b803603821315610310575f5ffd5b9250929050565b81835281816020850137505f602082840101525f60207fffffffffffffffffffffffffffffffffffffffffffffffffffffffffffffffe0601f840116840101905092915050565b5f61036982836102b0565b6040855261037b604086018284610317565b915050602083013567ffffffffffffffff8116808214610399575f5ffd5b602095909501949094529392505050565b73ffffffffffffffffffffffffffffffffffffffff841681526060602082015273ffffffffffffffffffffffffffffffffffffffff6103e88461020f565b1660608201527fffffffff0000000000000000000000000000000000000000000000000000000061041b602085016101bb565b16608082810191909152604084013560a0830152606084013560c08301525f90610447908501856102b0565b60c060e085015261045d61012085018284610317565b91505060a08501357fffffffffffffffffffffffffffffffffffffffffffffffffffffffffffffffc1863603018112610494575f5ffd5b7fffffffffffffffffffffffffffffffffffffffffffffffffffffffffffffffa0848303016101008501526104cb8287830161035e565b92505050826040830152949350505050565b5f602082840312156104ed575f5ffd5b505191905056fea2646970667358221220a6364954197d77147a5f3f1991dbee1f1186c7a0785bbf6ab288589e6e61ea7464736f6c634300081c0033","linkReferences":{}},"methodIdentifiers":{"acceptImplicitRequest(address,(address,bytes4,bytes32,bytes32,bytes,(string,uint64)),(address,uint256,bytes,uint256,bool,bool,uint256))":"9d043a66","supportsInterface(bytes4)":"01ffc9a7"},"id":32}